{
  "_format": "hh-sol-artifact-1",
  "contractName": "CrelatNFT",
  "sourceName": "contracts/CrelatNFT.sol",
  "abi": [
    {
      "inputs": [
        {
          "internalType": "string",
          "name": "_name",
          "type": "string"
        },
        {
          "internalType": "string",
          "name": "_symbol",
          "type": "string"
        },
        {
          "internalType": "string",
          "name": "_initBaseURI",
          "type": "string"
        },
        {
          "internalType": "string",
          "name": "_initNotRevealedUri",
          "type": "string"
        }
      ],
      "stateMutability": "nonpayable",
      "type": "constructor"
    },
    {
      "anonymous": false,
      "inputs": [
        {
          "indexed": true,
          "internalType": "address",
          "name": "owner",
          "type": "address"
        },
        {
          "indexed": true,
          "internalType": "address",
          "name": "approved",
          "type": "address"
        },
        {
          "indexed": true,
          "internalType": "uint256",
          "name": "tokenId",
          "type": "uint256"
        }
      ],
      "name": "Approval",
      "type": "event"
    },
    {
      "anonymous": false,
      "inputs": [
        {
          "indexed": true,
          "internalType": "address",
          "name": "owner",
          "type": "address"
        },
        {
          "indexed": true,
          "internalType": "address",
          "name": "operator",
          "type": "address"
        },
        {
          "indexed": false,
          "internalType": "bool",
          "name": "approved",
          "type": "bool"
        }
      ],
      "name": "ApprovalForAll",
      "type": "event"
    },
    {
      "anonymous": false,
      "inputs": [
        {
          "indexed": true,
          "internalType": "address",
          "name": "previousOwner",
          "type": "address"
        },
        {
          "indexed": true,
          "internalType": "address",
          "name": "newOwner",
          "type": "address"
        }
      ],
      "name": "OwnershipTransferred",
      "type": "event"
    },
    {
      "anonymous": false,
      "inputs": [
        {
          "indexed": true,
          "internalType": "address",
          "name": "from",
          "type": "address"
        },
        {
          "indexed": true,
          "internalType": "address",
          "name": "to",
          "type": "address"
        },
        {
          "indexed": true,
          "internalType": "uint256",
          "name": "tokenId",
          "type": "uint256"
        }
      ],
      "name": "Transfer",
      "type": "event"
    },
    {
      "inputs": [
        {
          "internalType": "address",
          "name": "",
          "type": "address"
        }
      ],
      "name": "addressMintedBalance",
      "outputs": [
        {
          "internalType": "uint256",
          "name": "",
          "type": "uint256"
        }
      ],
      "stateMutability": "view",
      "type": "function"
    },
    {
      "inputs": [
        {
          "internalType": "address",
          "name": "to",
          "type": "address"
        },
        {
          "internalType": "uint256",
          "name": "tokenId",
          "type": "uint256"
        }
      ],
      "name": "approve",
      "outputs": [],
      "stateMutability": "nonpayable",
      "type": "function"
    },
    {
      "inputs": [
        {
          "internalType": "address",
          "name": "owner",
          "type": "address"
        }
      ],
      "name": "balanceOf",
      "outputs": [
        {
          "internalType": "uint256",
          "name": "",
          "type": "uint256"
        }
      ],
      "stateMutability": "view",
      "type": "function"
    },
    {
      "inputs": [],
      "name": "baseExtension",
      "outputs": [
        {
          "internalType": "string",
          "name": "",
          "type": "string"
        }
      ],
      "stateMutability": "view",
      "type": "function"
    },
    {
      "inputs": [],
      "name": "baseURI",
      "outputs": [
        {
          "internalType": "string",
          "name": "",
          "type": "string"
        }
      ],
      "stateMutability": "view",
      "type": "function"
    },
    {
      "inputs": [],
      "name": "cost",
      "outputs": [
        {
          "internalType": "uint256",
          "name": "",
          "type": "uint256"
        }
      ],
      "stateMutability": "view",
      "type": "function"
    },
    {
      "inputs": [
        {
          "internalType": "uint256",
          "name": "tokenId",
          "type": "uint256"
        }
      ],
      "name": "getApproved",
      "outputs": [
        {
          "internalType": "address",
          "name": "",
          "type": "address"
        }
      ],
      "stateMutability": "view",
      "type": "function"
    },
    {
      "inputs": [
        {
          "internalType": "address",
          "name": "owner",
          "type": "address"
        },
        {
          "internalType": "address",
          "name": "operator",
          "type": "address"
        }
      ],
      "name": "isApprovedForAll",
      "outputs": [
        {
          "internalType": "bool",
          "name": "",
          "type": "bool"
        }
      ],
      "stateMutability": "view",
      "type": "function"
    },
    {
      "inputs": [
        {
          "internalType": "address",
          "name": "_user",
          "type": "address"
        }
      ],
      "name": "isWhitelisted",
      "outputs": [
        {
          "internalType": "bool",
          "name": "",
          "type": "bool"
        }
      ],
      "stateMutability": "view",
      "type": "function"
    },
    {
      "inputs": [],
      "name": "maxMintAmount",
      "outputs": [
        {
          "internalType": "uint256",
          "name": "",
          "type": "uint256"
        }
      ],
      "stateMutability": "view",
      "type": "function"
    },
    {
      "inputs": [],
      "name": "maxSupply",
      "outputs": [
        {
          "internalType": "uint256",
          "name": "",
          "type": "uint256"
        }
      ],
      "stateMutability": "view",
      "type": "function"
    },
    {
      "inputs": [
        {
          "internalType": "uint256",
          "name": "_mintAmount",
          "type": "uint256"
        }
      ],
      "name": "mint",
      "outputs": [],
      "stateMutability": "payable",
      "type": "function"
    },
    {
      "inputs": [],
      "name": "name",
      "outputs": [
        {
          "internalType": "string",
          "name": "",
          "type": "string"
        }
      ],
      "stateMutability": "view",
      "type": "function"
    },
    {
      "inputs": [],
      "name": "nftPerAddressLimit",
      "outputs": [
        {
          "internalType": "uint256",
          "name": "",
          "type": "uint256"
        }
      ],
      "stateMutability": "view",
      "type": "function"
    },
    {
      "inputs": [],
      "name": "notRevealedUri",
      "outputs": [
        {
          "internalType": "string",
          "name": "",
          "type": "string"
        }
      ],
      "stateMutability": "view",
      "type": "function"
    },
    {
      "inputs": [],
      "name": "onlyWhitelisted",
      "outputs": [
        {
          "internalType": "bool",
          "name": "",
          "type": "bool"
        }
      ],
      "stateMutability": "view",
      "type": "function"
    },
    {
      "inputs": [],
      "name": "owner",
      "outputs": [
        {
          "internalType": "address",
          "name": "",
          "type": "address"
        }
      ],
      "stateMutability": "view",
      "type": "function"
    },
    {
      "inputs": [
        {
          "internalType": "uint256",
          "name": "tokenId",
          "type": "uint256"
        }
      ],
      "name": "ownerOf",
      "outputs": [
        {
          "internalType": "address",
          "name": "",
          "type": "address"
        }
      ],
      "stateMutability": "view",
      "type": "function"
    },
    {
      "inputs": [
        {
          "internalType": "bool",
          "name": "_state",
          "type": "bool"
        }
      ],
      "name": "pause",
      "outputs": [],
      "stateMutability": "nonpayable",
      "type": "function"
    },
    {
      "inputs": [],
      "name": "paused",
      "outputs": [
        {
          "internalType": "bool",
          "name": "",
          "type": "bool"
        }
      ],
      "stateMutability": "view",
      "type": "function"
    },
    {
      "inputs": [],
      "name": "renounceOwnership",
      "outputs": [],
      "stateMutability": "nonpayable",
      "type": "function"
    },
    {
      "inputs": [],
      "name": "reveal",
      "outputs": [],
      "stateMutability": "nonpayable",
      "type": "function"
    },
    {
      "inputs": [],
      "name": "revealed",
      "outputs": [
        {
          "internalType": "bool",
          "name": "",
          "type": "bool"
        }
      ],
      "stateMutability": "view",
      "type": "function"
    },
    {
      "inputs": [
        {
          "internalType": "address",
          "name": "from",
          "type": "address"
        },
        {
          "internalType": "address",
          "name": "to",
          "type": "address"
        },
        {
          "internalType": "uint256",
          "name": "tokenId",
          "type": "uint256"
        }
      ],
      "name": "safeTransferFrom",
      "outputs": [],
      "stateMutability": "nonpayable",
      "type": "function"
    },
    {
      "inputs": [
        {
          "internalType": "address",
          "name": "from",
          "type": "address"
        },
        {
          "internalType": "address",
          "name": "to",
          "type": "address"
        },
        {
          "internalType": "uint256",
          "name": "tokenId",
          "type": "uint256"
        },
        {
          "internalType": "bytes",
          "name": "data",
          "type": "bytes"
        }
      ],
      "name": "safeTransferFrom",
      "outputs": [],
      "stateMutability": "nonpayable",
      "type": "function"
    },
    {
      "inputs": [
        {
          "internalType": "address",
          "name": "operator",
          "type": "address"
        },
        {
          "internalType": "bool",
          "name": "approved",
          "type": "bool"
        }
      ],
      "name": "setApprovalForAll",
      "outputs": [],
      "stateMutability": "nonpayable",
      "type": "function"
    },
    {
      "inputs": [
        {
          "internalType": "string",
          "name": "_newBaseExtension",
          "type": "string"
        }
      ],
      "name": "setBaseExtension",
      "outputs": [],
      "stateMutability": "nonpayable",
      "type": "function"
    },
    {
      "inputs": [
        {
          "internalType": "string",
          "name": "_newBaseURI",
          "type": "string"
        }
      ],
      "name": "setBaseURI",
      "outputs": [],
      "stateMutability": "nonpayable",
      "type": "function"
    },
    {
      "inputs": [
        {
          "internalType": "uint256",
          "name": "_newCost",
          "type": "uint256"
        }
      ],
      "name": "setCost",
      "outputs": [],
      "stateMutability": "nonpayable",
      "type": "function"
    },
    {
      "inputs": [
        {
          "internalType": "uint256",
          "name": "_limit",
          "type": "uint256"
        }
      ],
      "name": "setNftPerAddressLimit",
      "outputs": [],
      "stateMutability": "nonpayable",
      "type": "function"
    },
    {
      "inputs": [
        {
          "internalType": "string",
          "name": "_notRevealedURI",
          "type": "string"
        }
      ],
      "name": "setNotRevealedURI",
      "outputs": [],
      "stateMutability": "nonpayable",
      "type": "function"
    },
    {
      "inputs": [
        {
          "internalType": "bool",
          "name": "_state",
          "type": "bool"
        }
      ],
      "name": "setOnlyWhitelisted",
      "outputs": [],
      "stateMutability": "nonpayable",
      "type": "function"
    },
    {
      "inputs": [
        {
          "internalType": "uint256",
          "name": "_newmaxMintAmount",
          "type": "uint256"
        }
      ],
      "name": "setmaxMintAmount",
      "outputs": [],
      "stateMutability": "nonpayable",
      "type": "function"
    },
    {
      "inputs": [
        {
          "internalType": "bytes4",
          "name": "interfaceId",
          "type": "bytes4"
        }
      ],
      "name": "supportsInterface",
      "outputs": [
        {
          "internalType": "bool",
          "name": "",
          "type": "bool"
        }
      ],
      "stateMutability": "view",
      "type": "function"
    },
    {
      "inputs": [],
      "name": "symbol",
      "outputs": [
        {
          "internalType": "string",
          "name": "",
          "type": "string"
        }
      ],
      "stateMutability": "view",
      "type": "function"
    },
    {
      "inputs": [
        {
          "internalType": "uint256",
          "name": "index",
          "type": "uint256"
        }
      ],
      "name": "tokenByIndex",
      "outputs": [
        {
          "internalType": "uint256",
          "name": "",
          "type": "uint256"
        }
      ],
      "stateMutability": "view",
      "type": "function"
    },
    {
      "inputs": [
        {
          "internalType": "address",
          "name": "owner",
          "type": "address"
        },
        {
          "internalType": "uint256",
          "name": "index",
          "type": "uint256"
        }
      ],
      "name": "tokenOfOwnerByIndex",
      "outputs": [
        {
          "internalType": "uint256",
          "name": "",
          "type": "uint256"
        }
      ],
      "stateMutability": "view",
      "type": "function"
    },
    {
      "inputs": [
        {
          "internalType": "uint256",
          "name": "tokenId",
          "type": "uint256"
        }
      ],
      "name": "tokenURI",
      "outputs": [
        {
          "internalType": "string",
          "name": "",
          "type": "string"
        }
      ],
      "stateMutability": "view",
      "type": "function"
    },
    {
      "inputs": [],
      "name": "totalSupply",
      "outputs": [
        {
          "internalType": "uint256",
          "name": "",
          "type": "uint256"
        }
      ],
      "stateMutability": "view",
      "type": "function"
    },
    {
      "inputs": [
        {
          "internalType": "address",
          "name": "from",
          "type": "address"
        },
        {
          "internalType": "address",
          "name": "to",
          "type": "address"
        },
        {
          "internalType": "uint256",
          "name": "tokenId",
          "type": "uint256"
        }
      ],
      "name": "transferFrom",
      "outputs": [],
      "stateMutability": "nonpayable",
      "type": "function"
    },
    {
      "inputs": [
        {
          "internalType": "address",
          "name": "newOwner",
          "type": "address"
        }
      ],
      "name": "transferOwnership",
      "outputs": [],
      "stateMutability": "nonpayable",
      "type": "function"
    },
    {
      "inputs": [
        {
          "internalType": "address",
          "name": "_owner",
          "type": "address"
        }
      ],
      "name": "walletOfOwner",
      "outputs": [
        {
          "internalType": "uint256[]",
          "name": "",
          "type": "uint256[]"
        }
      ],
      "stateMutability": "view",
      "type": "function"
    },
    {
      "inputs": [
        {
          "internalType": "address[]",
          "name": "_users",
          "type": "address[]"
        }
      ],
      "name": "whitelistUsers",
      "outputs": [],
      "stateMutability": "nonpayable",
      "type": "function"
    },
    {
      "inputs": [
        {
          "internalType": "uint256",
          "name": "",
          "type": "uint256"
        }
      ],
      "name": "whitelistedAddresses",
      "outputs": [
        {
          "internalType": "address",
          "name": "",
          "type": "address"
        }
      ],
      "stateMutability": "view",
      "type": "function"
    }
  ],
  "bytecode": "0x60806040526040518060400160405280600581526020017f2e6a736f6e000000000000000000000000000000000000000000000000000000815250600c90805190602001906200005192919062000b08565b50670de0b6b3a7640000600e55612710600f55601460105560016011556000601260006101000a81548160ff0219169083151502179055506000601260016101000a81548160ff0219169083151502179055506001601260026101000a81548160ff021916908315150217905550348015620000cc57600080fd5b5060405162005a9638038062005a968339818101604052810190620000f2919062000c36565b838381600090805190602001906200010c92919062000b08565b5080600190805190602001906200012592919062000b08565b505050620001486200013c6200018760201b60201c565b6200018f60201b60201c565b62000159826200025560201b60201c565b6200016a816200028160201b60201c565b6200017d336014620002ad60201b60201c565b50505050620011d6565b600033905090565b6000600a60009054906101000a900473ffffffffffffffffffffffffffffffffffffffff16905081600a60006101000a81548173ffffffffffffffffffffffffffffffffffffffff021916908373ffffffffffffffffffffffffffffffffffffffff1602179055508173ffffffffffffffffffffffffffffffffffffffff168173ffffffffffffffffffffffffffffffffffffffff167f8be0079c531659141344cd1fd0a4f28419497f9722a3daafe3b4186f6b6457e060405160405180910390a35050565b62000265620004a760201b60201c565b80600b90805190602001906200027d92919062000b08565b5050565b62000291620004a760201b60201c565b80600d9080519060200190620002a992919062000b08565b5050565b600073ffffffffffffffffffffffffffffffffffffffff168273ffffffffffffffffffffffffffffffffffffffff16141562000320576040517f08c379a0000000000000000000000000000000000000000000000000000000008152600401620003179062000e04565b60405180910390fd5b62000331816200053860201b60201c565b1562000374576040517f08c379a00000000000000000000000000000000000000000000000000000000081526004016200036b9062000dc0565b60405180910390fd5b6200038860008383620005a460201b60201c565b6001600360008473ffffffffffffffffffffffffffffffffffffffff1673ffffffffffffffffffffffffffffffffffffffff1681526020019081526020016000206000828254620003da919062000eb8565b92505081905550816002600083815260200190815260200160002060006101000a81548173ffffffffffffffffffffffffffffffffffffffff021916908373ffffffffffffffffffffffffffffffffffffffff160217905550808273ffffffffffffffffffffffffffffffffffffffff16600073ffffffffffffffffffffffffffffffffffffffff167fddf252ad1be2c89b69c2b068fc378daa952ba7f163c4a11628f55a4df523b3ef60405160405180910390a4620004a360008383620006eb60201b60201c565b5050565b620004b76200018760201b60201c565b73ffffffffffffffffffffffffffffffffffffffff16620004dd620006f060201b60201c565b73ffffffffffffffffffffffffffffffffffffffff161462000536576040517f08c379a00000000000000000000000000000000000000000000000000000000081526004016200052d9062000e26565b60405180910390fd5b565b60008073ffffffffffffffffffffffffffffffffffffffff166002600084815260200190815260200160002060009054906101000a900473ffffffffffffffffffffffffffffffffffffffff1673ffffffffffffffffffffffffffffffffffffffff1614159050919050565b620005bc8383836200071a60201b62001bb21760201c565b600073ffffffffffffffffffffffffffffffffffffffff168373ffffffffffffffffffffffffffffffffffffffff161415620006095762000603816200071f60201b60201c565b62000651565b8173ffffffffffffffffffffffffffffffffffffffff168373ffffffffffffffffffffffffffffffffffffffff161462000650576200064f83826200076860201b60201c565b5b5b600073ffffffffffffffffffffffffffffffffffffffff168273ffffffffffffffffffffffffffffffffffffffff1614156200069e576200069881620008e560201b60201c565b620006e6565b8273ffffffffffffffffffffffffffffffffffffffff168273ffffffffffffffffffffffffffffffffffffffff1614620006e557620006e48282620009c160201b60201c565b5b5b505050565b505050565b6000600a60009054906101000a900473ffffffffffffffffffffffffffffffffffffffff16905090565b505050565b6008805490506009600083815260200190815260200160002081905550600881908060018154018082558091505060019003906000526020600020016000909190919091505550565b60006001620007828462000a4d60201b620012531760201c565b6200078e919062000f15565b905060006007600084815260200190815260200160002054905081811462000874576000600660008673ffffffffffffffffffffffffffffffffffffffff1673ffffffffffffffffffffffffffffffffffffffff168152602001908152602001600020600084815260200190815260200160002054905080600660008773ffffffffffffffffffffffffffffffffffffffff1673ffffffffffffffffffffffffffffffffffffffff168152602001908152602001600020600084815260200190815260200160002081905550816007600083815260200190815260200160002081905550505b6007600084815260200190815260200160002060009055600660008573ffffffffffffffffffffffffffffffffffffffff1673ffffffffffffffffffffffffffffffffffffffff16815260200190815260200160002060008381526020019081526020016000206000905550505050565b60006001600880549050620008fb919062000f15565b90506000600960008481526020019081526020016000205490506000600883815481106200092e576200092d62001089565b5b90600052602060002001549050806008838154811062000953576200095262001089565b5b906000526020600020018190555081600960008381526020019081526020016000208190555060096000858152602001908152602001600020600090556008805480620009a557620009a46200105a565b5b6001900381819060005260206000200160009055905550505050565b6000620009d98362000a4d60201b620012531760201c565b905081600660008573ffffffffffffffffffffffffffffffffffffffff1673ffffffffffffffffffffffffffffffffffffffff168152602001908152602001600020600083815260200190815260200160002081905550806007600084815260200190815260200160002081905550505050565b60008073ffffffffffffffffffffffffffffffffffffffff168273ffffffffffffffffffffffffffffffffffffffff16141562000ac1576040517f08c379a000000000000000000000000000000000000000000000000000000000815260040162000ab89062000de2565b60405180910390fd5b600360008373ffffffffffffffffffffffffffffffffffffffff1673ffffffffffffffffffffffffffffffffffffffff168152602001908152602001600020549050919050565b82805462000b169062000f90565b90600052602060002090601f01602090048101928262000b3a576000855562000b86565b82601f1062000b5557805160ff191683800117855562000b86565b8280016001018555821562000b86579182015b8281111562000b8557825182559160200191906001019062000b68565b5b50905062000b95919062000b99565b5090565b5b8082111562000bb457600081600090555060010162000b9a565b5090565b600062000bcf62000bc98462000e71565b62000e48565b90508281526020810184848401111562000bee5762000bed620010ec565b5b62000bfb84828562000f5a565b509392505050565b600082601f83011262000c1b5762000c1a620010e7565b5b815162000c2d84826020860162000bb8565b91505092915050565b6000806000806080858703121562000c535762000c52620010f6565b5b600085015167ffffffffffffffff81111562000c745762000c73620010f1565b5b62000c828782880162000c03565b945050602085015167ffffffffffffffff81111562000ca65762000ca5620010f1565b5b62000cb48782880162000c03565b935050604085015167ffffffffffffffff81111562000cd85762000cd7620010f1565b5b62000ce68782880162000c03565b925050606085015167ffffffffffffffff81111562000d0a5762000d09620010f1565b5b62000d188782880162000c03565b91505092959194509250565b600062000d33601c8362000ea7565b915062000d40826200110c565b602082019050919050565b600062000d5a60298362000ea7565b915062000d678262001135565b604082019050919050565b600062000d8160208362000ea7565b915062000d8e8262001184565b602082019050919050565b600062000da860208362000ea7565b915062000db582620011ad565b602082019050919050565b6000602082019050818103600083015262000ddb8162000d24565b9050919050565b6000602082019050818103600083015262000dfd8162000d4b565b9050919050565b6000602082019050818103600083015262000e1f8162000d72565b9050919050565b6000602082019050818103600083015262000e418162000d99565b9050919050565b600062000e5462000e67565b905062000e62828262000fc6565b919050565b6000604051905090565b600067ffffffffffffffff82111562000e8f5762000e8e620010b8565b5b62000e9a82620010fb565b9050602081019050919050565b600082825260208201905092915050565b600062000ec58262000f50565b915062000ed28362000f50565b9250827fffffffffffffffffffffffffffffffffffffffffffffffffffffffffffffffff0382111562000f0a5762000f0962000ffc565b5b828201905092915050565b600062000f228262000f50565b915062000f2f8362000f50565b92508282101562000f455762000f4462000ffc565b5b828203905092915050565b6000819050919050565b60005b8381101562000f7a57808201518184015260208101905062000f5d565b8381111562000f8a576000848401525b50505050565b6000600282049050600182168062000fa957607f821691505b6020821081141562000fc05762000fbf6200102b565b5b50919050565b62000fd182620010fb565b810181811067ffffffffffffffff8211171562000ff35762000ff2620010b8565b5b80604052505050565b7f4e487b7100000000000000000000000000000000000000000000000000000000600052601160045260246000fd5b7f4e487b7100000000000000000000000000000000000000000000000000000000600052602260045260246000fd5b7f4e487b7100000000000000000000000000000000000000000000000000000000600052603160045260246000fd5b7f4e487b7100000000000000000000000000000000000000000000000000000000600052603260045260246000fd5b7f4e487b7100000000000000000000000000000000000000000000000000000000600052604160045260246000fd5b600080fd5b600080fd5b600080fd5b600080fd5b6000601f19601f8301169050919050565b7f4552433732313a20746f6b656e20616c7265616479206d696e74656400000000600082015250565b7f4552433732313a2061646472657373207a65726f206973206e6f74206120766160008201527f6c6964206f776e65720000000000000000000000000000000000000000000000602082015250565b7f4552433732313a206d696e7420746f20746865207a65726f2061646472657373600082015250565b7f4f776e61626c653a2063616c6c6572206973206e6f7420746865206f776e6572600082015250565b6148b080620011e66000396000f3fe6080604052600436106102675760003560e01c80636c0360eb11610144578063ba4e5c49116100b6578063d5abeb011161007a578063d5abeb0114610947578063da3ef23f14610972578063e985e9c51461099b578063edec5f27146109d8578063f2c4ce1e14610a01578063f2fde38b14610a2a57610267565b8063ba4e5c491461084e578063ba7d2c761461088b578063c6682862146108b6578063c87b56dd146108e1578063d0eb26b01461091e57610267565b806395d89b411161010857806395d89b41146107735780639c70b5121461079e578063a0712d68146107c9578063a22cb465146107e5578063a475b5dd1461080e578063b88d4fde1461082557610267565b80636c0360eb146106a057806370a08231146106cb578063715018a6146107085780637f00c7a61461071f5780638da5cb5b1461074857610267565b80632f745c59116101dd57806344a0d68a116101a157806344a0d68a1461057e5780634f6ccce7146105a757806351830227146105e457806355f804b31461060f5780635c975abb146106385780636352211e1461066357610267565b80632f745c59146104755780633af32abf146104b25780633c952764146104ef57806342842e0e14610518578063438b63001461054157610267565b8063095ea7b31161022f578063095ea7b31461036557806313faede61461038e57806318160ddd146103b957806318cae269146103e4578063239c70ae1461042157806323b872dd1461044c57610267565b806301ffc9a71461026c57806302329a29146102a957806306fdde03146102d2578063081812fc146102fd578063081c8c441461033a575b600080fd5b34801561027857600080fd5b50610293600480360381019061028e91906133e3565b610a53565b6040516102a09190613a66565b60405180910390f35b3480156102b557600080fd5b506102d060048036038101906102cb91906133b6565b610acd565b005b3480156102de57600080fd5b506102e7610af2565b6040516102f49190613a81565b60405180910390f35b34801561030957600080fd5b50610324600480360381019061031f9190613486565b610b84565b60405161033191906139dd565b60405180910390f35b34801561034657600080fd5b5061034f610bca565b60405161035c9190613a81565b60405180910390f35b34801561037157600080fd5b5061038c60048036038101906103879190613329565b610c58565b005b34801561039a57600080fd5b506103a3610d70565b6040516103b09190613d83565b60405180910390f35b3480156103c557600080fd5b506103ce610d76565b6040516103db9190613d83565b60405180910390f35b3480156103f057600080fd5b5061040b600480360381019061040691906131a6565b610d83565b6040516104189190613d83565b60405180910390f35b34801561042d57600080fd5b50610436610d9b565b6040516104439190613d83565b60405180910390f35b34801561045857600080fd5b50610473600480360381019061046e9190613213565b610da1565b005b34801561048157600080fd5b5061049c60048036038101906104979190613329565b610e01565b6040516104a99190613d83565b60405180910390f35b3480156104be57600080fd5b506104d960048036038101906104d491906131a6565b610ea6565b6040516104e69190613a66565b60405180910390f35b3480156104fb57600080fd5b50610516600480360381019061051191906133b6565b610f55565b005b34801561052457600080fd5b5061053f600480360381019061053a9190613213565b610f7a565b005b34801561054d57600080fd5b50610568600480360381019061056391906131a6565b610f9a565b6040516105759190613a44565b60405180910390f35b34801561058a57600080fd5b506105a560048036038101906105a09190613486565b611048565b005b3480156105b357600080fd5b506105ce60048036038101906105c99190613486565b61105a565b6040516105db9190613d83565b60405180910390f35b3480156105f057600080fd5b506105f96110cb565b6040516106069190613a66565b60405180910390f35b34801561061b57600080fd5b506106366004803603810190610631919061343d565b6110de565b005b34801561064457600080fd5b5061064d611100565b60405161065a9190613a66565b60405180910390f35b34801561066f57600080fd5b5061068a60048036038101906106859190613486565b611113565b60405161069791906139dd565b60405180910390f35b3480156106ac57600080fd5b506106b56111c5565b6040516106c29190613a81565b60405180910390f35b3480156106d757600080fd5b506106f260048036038101906106ed91906131a6565b611253565b6040516106ff9190613d83565b60405180910390f35b34801561071457600080fd5b5061071d61130b565b005b34801561072b57600080fd5b5061074660048036038101906107419190613486565b61131f565b005b34801561075457600080fd5b5061075d611331565b60405161076a91906139dd565b60405180910390f35b34801561077f57600080fd5b5061078861135b565b6040516107959190613a81565b60405180910390f35b3480156107aa57600080fd5b506107b36113ed565b6040516107c09190613a66565b60405180910390f35b6107e360048036038101906107de9190613486565b611400565b005b3480156107f157600080fd5b5061080c600480360381019061080791906132e9565b611749565b005b34801561081a57600080fd5b5061082361175f565b005b34801561083157600080fd5b5061084c60048036038101906108479190613266565b611784565b005b34801561085a57600080fd5b5061087560048036038101906108709190613486565b6117e6565b60405161088291906139dd565b60405180910390f35b34801561089757600080fd5b506108a0611825565b6040516108ad9190613d83565b60405180910390f35b3480156108c257600080fd5b506108cb61182b565b6040516108d89190613a81565b60405180910390f35b3480156108ed57600080fd5b5061090860048036038101906109039190613486565b6118b9565b6040516109159190613a81565b60405180910390f35b34801561092a57600080fd5b5061094560048036038101906109409190613486565b611a12565b005b34801561095357600080fd5b5061095c611a24565b6040516109699190613d83565b60405180910390f35b34801561097e57600080fd5b506109996004803603810190610994919061343d565b611a2a565b005b3480156109a757600080fd5b506109c260048036038101906109bd91906131d3565b611a4c565b6040516109cf9190613a66565b60405180910390f35b3480156109e457600080fd5b506109ff60048036038101906109fa9190613369565b611ae0565b005b348015610a0d57600080fd5b50610a286004803603810190610a23919061343d565b611b0c565b005b348015610a3657600080fd5b50610a516004803603810190610a4c91906131a6565b611b2e565b005b60007f780e9d63000000000000000000000000000000000000000000000000000000007bffffffffffffffffffffffffffffffffffffffffffffffffffffffff1916827bffffffffffffffffffffffffffffffffffffffffffffffffffffffff19161480610ac65750610ac582611bb7565b5b9050919050565b610ad5611c99565b80601260006101000a81548160ff02191690831515021790555050565b606060008054610b0190614081565b80601f0160208091040260200160405190810160405280929190818152602001828054610b2d90614081565b8015610b7a5780601f10610b4f57610100808354040283529160200191610b7a565b820191906000526020600020905b815481529060010190602001808311610b5d57829003601f168201915b5050505050905090565b6000610b8f82611d17565b6004600083815260200190815260200160002060009054906101000a900473ffffffffffffffffffffffffffffffffffffffff169050919050565b600d8054610bd790614081565b80601f0160208091040260200160405190810160405280929190818152602001828054610c0390614081565b8015610c505780601f10610c2557610100808354040283529160200191610c50565b820191906000526020600020905b815481529060010190602001808311610c3357829003601f168201915b505050505081565b6000610c6382611113565b90508073ffffffffffffffffffffffffffffffffffffffff168373ffffffffffffffffffffffffffffffffffffffff161415610cd4576040517f08c379a0000000000000000000000000000000000000000000000000000000008152600401610ccb90613cc3565b60405180910390fd5b8073ffffffffffffffffffffffffffffffffffffffff16610cf3611d62565b73ffffffffffffffffffffffffffffffffffffffff161480610d225750610d2181610d1c611d62565b611a4c565b5b610d61576040517f08c379a0000000000000000000000000000000000000000000000000000000008152600401610d5890613c03565b60405180910390fd5b610d6b8383611d6a565b505050565b600e5481565b6000600880549050905090565b60146020528060005260406000206000915090505481565b60105481565b610db2610dac611d62565b82611e23565b610df1576040517f08c379a0000000000000000000000000000000000000000000000000000000008152600401610de890613d43565b60405180910390fd5b610dfc838383611eb8565b505050565b6000610e0c83611253565b8210610e4d576040517f08c379a0000000000000000000000000000000000000000000000000000000008152600401610e4490613aa3565b60405180910390fd5b600660008473ffffffffffffffffffffffffffffffffffffffff1673ffffffffffffffffffffffffffffffffffffffff168152602001908152602001600020600083815260200190815260200160002054905092915050565b600080600090505b601380549050811015610f4a578273ffffffffffffffffffffffffffffffffffffffff1660138281548110610ee657610ee561421a565b5b9060005260206000200160009054906101000a900473ffffffffffffffffffffffffffffffffffffffff1673ffffffffffffffffffffffffffffffffffffffff161415610f37576001915050610f50565b8080610f42906140e4565b915050610eae565b50600090505b919050565b610f5d611c99565b80601260026101000a81548160ff02191690831515021790555050565b610f9583838360405180602001604052806000815250611784565b505050565b60606000610fa783611253565b905060008167ffffffffffffffff811115610fc557610fc4614249565b5b604051908082528060200260200182016040528015610ff35781602001602082028036833780820191505090505b50905060005b8281101561103d5761100b8582610e01565b82828151811061101e5761101d61421a565b5b6020026020010181815250508080611035906140e4565b915050610ff9565b508092505050919050565b611050611c99565b80600e8190555050565b6000611064610d76565b82106110a5576040517f08c379a000000000000000000000000000000000000000000000000000000000815260040161109c90613d03565b60405180910390fd5b600882815481106110b9576110b861421a565b5b90600052602060002001549050919050565b601260019054906101000a900460ff1681565b6110e6611c99565b80600b90805190602001906110fc929190612ea3565b5050565b601260009054906101000a900460ff1681565b6000806002600084815260200190815260200160002060009054906101000a900473ffffffffffffffffffffffffffffffffffffffff169050600073ffffffffffffffffffffffffffffffffffffffff168173ffffffffffffffffffffffffffffffffffffffff1614156111bc576040517f08c379a00000000000000000000000000000000000000000000000000000000081526004016111b390613ca3565b60405180910390fd5b80915050919050565b600b80546111d290614081565b80601f01602080910402602001604051908101604052809291908181526020018280546111fe90614081565b801561124b5780601f106112205761010080835404028352916020019161124b565b820191906000526020600020905b81548152906001019060200180831161122e57829003601f168201915b505050505081565b60008073ffffffffffffffffffffffffffffffffffffffff168273ffffffffffffffffffffffffffffffffffffffff1614156112c4576040517f08c379a00000000000000000000000000000000000000000000000000000000081526004016112bb90613ba3565b60405180910390fd5b600360008373ffffffffffffffffffffffffffffffffffffffff1673ffffffffffffffffffffffffffffffffffffffff168152602001908152602001600020549050919050565b611313611c99565b61131d600061211f565b565b611327611c99565b8060108190555050565b6000600a60009054906101000a900473ffffffffffffffffffffffffffffffffffffffff16905090565b60606001805461136a90614081565b80601f016020809104026020016040519081016040528092919081815260200182805461139690614081565b80156113e35780601f106113b8576101008083540402835291602001916113e3565b820191906000526020600020905b8154815290600101906020018083116113c657829003601f168201915b5050505050905090565b601260029054906101000a900460ff1681565b601260009054906101000a900460ff1615611450576040517f08c379a000000000000000000000000000000000000000000000000000000000815260040161144790613c63565b60405180910390fd5b600061145a610d76565b90506000821161149f576040517f08c379a000000000000000000000000000000000000000000000000000000000815260040161149690613d63565b60405180910390fd5b6010548211156114e4576040517f08c379a00000000000000000000000000000000000000000000000000000000081526004016114db90613be3565b60405180910390fd5b600f5482826114f39190613eb6565b1115611534576040517f08c379a000000000000000000000000000000000000000000000000000000000815260040161152b90613bc3565b60405180910390fd5b61153c611331565b73ffffffffffffffffffffffffffffffffffffffff163373ffffffffffffffffffffffffffffffffffffffff16146116b95760011515601260029054906101000a900460ff16151514156116685761159333610ea6565b6115d2576040517f08c379a00000000000000000000000000000000000000000000000000000000081526004016115c990613d23565b60405180910390fd5b6000601460003373ffffffffffffffffffffffffffffffffffffffff1673ffffffffffffffffffffffffffffffffffffffff16815260200190815260200160002054905060115483826116259190613eb6565b1115611666576040517f08c379a000000000000000000000000000000000000000000000000000000000815260040161165d90613b43565b60405180910390fd5b505b81600e546116769190613f3d565b3410156116b8576040517f08c379a00000000000000000000000000000000000000000000000000000000081526004016116af90613ce3565b60405180910390fd5b5b6000600190505b82811161174457601460003373ffffffffffffffffffffffffffffffffffffffff1673ffffffffffffffffffffffffffffffffffffffff1681526020019081526020016000206000815480929190611717906140e4565b919050555061173133828461172c9190613eb6565b6121e5565b808061173c906140e4565b9150506116c0565b505050565b61175b611754611d62565b8383612203565b5050565b611767611c99565b6001601260016101000a81548160ff021916908315150217905550565b61179561178f611d62565b83611e23565b6117d4576040517f08c379a00000000000000000000000000000000000000000000000000000000081526004016117cb90613d43565b60405180910390fd5b6117e084848484612370565b50505050565b601381815481106117f657600080fd5b906000526020600020016000915054906101000a900473ffffffffffffffffffffffffffffffffffffffff1681565b60115481565b600c805461183890614081565b80601f016020809104026020016040519081016040528092919081815260200182805461186490614081565b80156118b15780601f10611886576101008083540402835291602001916118b1565b820191906000526020600020905b81548152906001019060200180831161189457829003601f168201915b505050505081565b60606118c4826123cc565b611903576040517f08c379a00000000000000000000000000000000000000000000000000000000081526004016118fa90613c83565b60405180910390fd5b60001515601260019054906101000a900460ff16151514156119b157600d805461192c90614081565b80601f016020809104026020016040519081016040528092919081815260200182805461195890614081565b80156119a55780601f1061197a576101008083540402835291602001916119a5565b820191906000526020600020905b81548152906001019060200180831161198857829003601f168201915b50505050509050611a0d565b60006119bb612438565b905060008151116119db5760405180602001604052806000815250611a09565b806119e5846124ca565b600c6040516020016119f9939291906139ac565b6040516020818303038152906040525b9150505b919050565b611a1a611c99565b8060118190555050565b600f5481565b611a32611c99565b80600c9080519060200190611a48929190612ea3565b5050565b6000600560008473ffffffffffffffffffffffffffffffffffffffff1673ffffffffffffffffffffffffffffffffffffffff16815260200190815260200160002060008373ffffffffffffffffffffffffffffffffffffffff1673ffffffffffffffffffffffffffffffffffffffff16815260200190815260200160002060009054906101000a900460ff16905092915050565b611ae8611c99565b60136000611af69190612f29565b818160139190611b07929190612f4a565b505050565b611b14611c99565b80600d9080519060200190611b2a929190612ea3565b5050565b611b36611c99565b600073ffffffffffffffffffffffffffffffffffffffff168173ffffffffffffffffffffffffffffffffffffffff161415611ba6576040517f08c379a0000000000000000000000000000000000000000000000000000000008152600401611b9d90613ae3565b60405180910390fd5b611baf8161211f565b50565b505050565b60007f80ac58cd000000000000000000000000000000000000000000000000000000007bffffffffffffffffffffffffffffffffffffffffffffffffffffffff1916827bffffffffffffffffffffffffffffffffffffffffffffffffffffffff19161480611c8257507f5b5e139f000000000000000000000000000000000000000000000000000000007bffffffffffffffffffffffffffffffffffffffffffffffffffffffff1916827bffffffffffffffffffffffffffffffffffffffffffffffffffffffff1916145b80611c925750611c918261262b565b5b9050919050565b611ca1611d62565b73ffffffffffffffffffffffffffffffffffffffff16611cbf611331565b73ffffffffffffffffffffffffffffffffffffffff1614611d15576040517f08c379a0000000000000000000000000000000000000000000000000000000008152600401611d0c90613c43565b60405180910390fd5b565b611d20816123cc565b611d5f576040517f08c379a0000000000000000000000000000000000000000000000000000000008152600401611d5690613ca3565b60405180910390fd5b50565b600033905090565b816004600083815260200190815260200160002060006101000a81548173ffffffffffffffffffffffffffffffffffffffff021916908373ffffffffffffffffffffffffffffffffffffffff160217905550808273ffffffffffffffffffffffffffffffffffffffff16611ddd83611113565b73ffffffffffffffffffffffffffffffffffffffff167f8c5be1e5ebec7d5bd14f71427d1e84f3dd0314c0f7b2291e5b200ac8c7c3b92560405160405180910390a45050565b600080611e2f83611113565b90508073ffffffffffffffffffffffffffffffffffffffff168473ffffffffffffffffffffffffffffffffffffffff161480611e715750611e708185611a4c565b5b80611eaf57508373ffffffffffffffffffffffffffffffffffffffff16611e9784610b84565b73ffffffffffffffffffffffffffffffffffffffff16145b91505092915050565b8273ffffffffffffffffffffffffffffffffffffffff16611ed882611113565b73ffffffffffffffffffffffffffffffffffffffff1614611f2e576040517f08c379a0000000000000000000000000000000000000000000000000000000008152600401611f2590613b03565b60405180910390fd5b600073ffffffffffffffffffffffffffffffffffffffff168273ffffffffffffffffffffffffffffffffffffffff161415611f9e576040517f08c379a0000000000000000000000000000000000000000000000000000000008152600401611f9590613b63565b60405180910390fd5b611fa9838383612695565b611fb4600082611d6a565b6001600360008573ffffffffffffffffffffffffffffffffffffffff1673ffffffffffffffffffffffffffffffffffffffff16815260200190815260200160002060008282546120049190613f97565b925050819055506001600360008473ffffffffffffffffffffffffffffffffffffffff1673ffffffffffffffffffffffffffffffffffffffff168152602001908152602001600020600082825461205b9190613eb6565b92505081905550816002600083815260200190815260200160002060006101000a81548173ffffffffffffffffffffffffffffffffffffffff021916908373ffffffffffffffffffffffffffffffffffffffff160217905550808273ffffffffffffffffffffffffffffffffffffffff168473ffffffffffffffffffffffffffffffffffffffff167fddf252ad1be2c89b69c2b068fc378daa952ba7f163c4a11628f55a4df523b3ef60405160405180910390a461211a8383836127a9565b505050565b6000600a60009054906101000a900473ffffffffffffffffffffffffffffffffffffffff16905081600a60006101000a81548173ffffffffffffffffffffffffffffffffffffffff021916908373ffffffffffffffffffffffffffffffffffffffff1602179055508173ffffffffffffffffffffffffffffffffffffffff168173ffffffffffffffffffffffffffffffffffffffff167f8be0079c531659141344cd1fd0a4f28419497f9722a3daafe3b4186f6b6457e060405160405180910390a35050565b6121ff8282604051806020016040528060008152506127ae565b5050565b8173ffffffffffffffffffffffffffffffffffffffff168373ffffffffffffffffffffffffffffffffffffffff161415612272576040517f08c379a000000000000000000000000000000000000000000000000000000000815260040161226990613b83565b60405180910390fd5b80600560008573ffffffffffffffffffffffffffffffffffffffff1673ffffffffffffffffffffffffffffffffffffffff16815260200190815260200160002060008473ffffffffffffffffffffffffffffffffffffffff1673ffffffffffffffffffffffffffffffffffffffff16815260200190815260200160002060006101000a81548160ff0219169083151502179055508173ffffffffffffffffffffffffffffffffffffffff168373ffffffffffffffffffffffffffffffffffffffff167f17307eab39ab6107e8899845ad3d59bd9653f200f220920489ca2b5937696c31836040516123639190613a66565b60405180910390a3505050565b61237b848484611eb8565b61238784848484612809565b6123c6576040517f08c379a00000000000000000000000000000000000000000000000000000000081526004016123bd90613ac3565b60405180910390fd5b50505050565b60008073ffffffffffffffffffffffffffffffffffffffff166002600084815260200190815260200160002060009054906101000a900473ffffffffffffffffffffffffffffffffffffffff1673ffffffffffffffffffffffffffffffffffffffff1614159050919050565b6060600b805461244790614081565b80601f016020809104026020016040519081016040528092919081815260200182805461247390614081565b80156124c05780601f10612495576101008083540402835291602001916124c0565b820191906000526020600020905b8154815290600101906020018083116124a357829003601f168201915b5050505050905090565b60606000821415612512576040518060400160405280600181526020017f30000000000000000000000000000000000000000000000000000000000000008152509050612626565b600082905060005b6000821461254457808061252d906140e4565b915050600a8261253d9190613f0c565b915061251a565b60008167ffffffffffffffff8111156125605761255f614249565b5b6040519080825280601f01601f1916602001820160405280156125925781602001600182028036833780820191505090505b5090505b6000851461261f576001826125ab9190613f97565b9150600a856125ba919061412d565b60306125c69190613eb6565b60f81b8183815181106125dc576125db61421a565b5b60200101907effffffffffffffffffffffffffffffffffffffffffffffffffffffffffffff1916908160001a905350600a856126189190613f0c565b9450612596565b8093505050505b919050565b60007f01ffc9a7000000000000000000000000000000000000000000000000000000007bffffffffffffffffffffffffffffffffffffffffffffffffffffffff1916827bffffffffffffffffffffffffffffffffffffffffffffffffffffffff1916149050919050565b6126a0838383611bb2565b600073ffffffffffffffffffffffffffffffffffffffff168373ffffffffffffffffffffffffffffffffffffffff1614156126e3576126de816129a0565b612722565b8173ffffffffffffffffffffffffffffffffffffffff168373ffffffffffffffffffffffffffffffffffffffff16146127215761272083826129e9565b5b5b600073ffffffffffffffffffffffffffffffffffffffff168273ffffffffffffffffffffffffffffffffffffffff1614156127655761276081612b56565b6127a4565b8273ffffffffffffffffffffffffffffffffffffffff168273ffffffffffffffffffffffffffffffffffffffff16146127a3576127a28282612c27565b5b5b505050565b505050565b6127b88383612ca6565b6127c56000848484612809565b612804576040517f08c379a00000000000000000000000000000000000000000000000000000000081526004016127fb90613ac3565b60405180910390fd5b505050565b600061282a8473ffffffffffffffffffffffffffffffffffffffff16612e80565b15612993578373ffffffffffffffffffffffffffffffffffffffff1663150b7a02612853611d62565b8786866040518563ffffffff1660e01b815260040161287594939291906139f8565b602060405180830381600087803b15801561288f57600080fd5b505af19250505080156128c057506040513d601f19601f820116820180604052508101906128bd9190613410565b60015b612943573d80600081146128f0576040519150601f19603f3d011682016040523d82523d6000602084013e6128f5565b606091505b5060008151141561293b576040517f08c379a000000000000000000000000000000000000000000000000000000000815260040161293290613ac3565b60405180910390fd5b805181602001fd5b63150b7a0260e01b7bffffffffffffffffffffffffffffffffffffffffffffffffffffffff1916817bffffffffffffffffffffffffffffffffffffffffffffffffffffffff191614915050612998565b600190505b949350505050565b6008805490506009600083815260200190815260200160002081905550600881908060018154018082558091505060019003906000526020600020016000909190919091505550565b600060016129f684611253565b612a009190613f97565b9050600060076000848152602001908152602001600020549050818114612ae5576000600660008673ffffffffffffffffffffffffffffffffffffffff1673ffffffffffffffffffffffffffffffffffffffff168152602001908152602001600020600084815260200190815260200160002054905080600660008773ffffffffffffffffffffffffffffffffffffffff1673ffffffffffffffffffffffffffffffffffffffff168152602001908152602001600020600084815260200190815260200160002081905550816007600083815260200190815260200160002081905550505b6007600084815260200190815260200160002060009055600660008573ffffffffffffffffffffffffffffffffffffffff1673ffffffffffffffffffffffffffffffffffffffff16815260200190815260200160002060008381526020019081526020016000206000905550505050565b60006001600880549050612b6a9190613f97565b9050600060096000848152602001908152602001600020549050600060088381548110612b9a57612b9961421a565b5b906000526020600020015490508060088381548110612bbc57612bbb61421a565b5b906000526020600020018190555081600960008381526020019081526020016000208190555060096000858152602001908152602001600020600090556008805480612c0b57612c0a6141eb565b5b6001900381819060005260206000200160009055905550505050565b6000612c3283611253565b905081600660008573ffffffffffffffffffffffffffffffffffffffff1673ffffffffffffffffffffffffffffffffffffffff168152602001908152602001600020600083815260200190815260200160002081905550806007600084815260200190815260200160002081905550505050565b600073ffffffffffffffffffffffffffffffffffffffff168273ffffffffffffffffffffffffffffffffffffffff161415612d16576040517f08c379a0000000000000000000000000000000000000000000000000000000008152600401612d0d90613c23565b60405180910390fd5b612d1f816123cc565b15612d5f576040517f08c379a0000000000000000000000000000000000000000000000000000000008152600401612d5690613b23565b60405180910390fd5b612d6b60008383612695565b6001600360008473ffffffffffffffffffffffffffffffffffffffff1673ffffffffffffffffffffffffffffffffffffffff1681526020019081526020016000206000828254612dbb9190613eb6565b92505081905550816002600083815260200190815260200160002060006101000a81548173ffffffffffffffffffffffffffffffffffffffff021916908373ffffffffffffffffffffffffffffffffffffffff160217905550808273ffffffffffffffffffffffffffffffffffffffff16600073ffffffffffffffffffffffffffffffffffffffff167fddf252ad1be2c89b69c2b068fc378daa952ba7f163c4a11628f55a4df523b3ef60405160405180910390a4612e7c600083836127a9565b5050565b6000808273ffffffffffffffffffffffffffffffffffffffff163b119050919050565b828054612eaf90614081565b90600052602060002090601f016020900481019282612ed15760008555612f18565b82601f10612eea57805160ff1916838001178555612f18565b82800160010185558215612f18579182015b82811115612f17578251825591602001919060010190612efc565b5b509050612f259190612fea565b5090565b5080546000825590600052602060002090810190612f479190612fea565b50565b828054828255906000526020600020908101928215612fd9579160200282015b82811115612fd857823573ffffffffffffffffffffffffffffffffffffffff168260006101000a81548173ffffffffffffffffffffffffffffffffffffffff021916908373ffffffffffffffffffffffffffffffffffffffff16021790555091602001919060010190612f6a565b5b509050612fe69190612fea565b5090565b5b80821115613003576000816000905550600101612feb565b5090565b600061301a61301584613dc3565b613d9e565b90508281526020810184848401111561303657613035614287565b5b61304184828561403f565b509392505050565b600061305c61305784613df4565b613d9e565b90508281526020810184848401111561307857613077614287565b5b61308384828561403f565b509392505050565b60008135905061309a8161481e565b92915050565b60008083601f8401126130b6576130b561427d565b5b8235905067ffffffffffffffff8111156130d3576130d2614278565b5b6020830191508360208202830111156130ef576130ee614282565b5b9250929050565b60008135905061310581614835565b92915050565b60008135905061311a8161484c565b92915050565b60008151905061312f8161484c565b92915050565b600082601f83011261314a5761314961427d565b5b813561315a848260208601613007565b91505092915050565b600082601f8301126131785761317761427d565b5b8135613188848260208601613049565b91505092915050565b6000813590506131a081614863565b92915050565b6000602082840312156131bc576131bb614291565b5b60006131ca8482850161308b565b91505092915050565b600080604083850312156131ea576131e9614291565b5b60006131f88582860161308b565b92505060206132098582860161308b565b9150509250929050565b60008060006060848603121561322c5761322b614291565b5b600061323a8682870161308b565b935050602061324b8682870161308b565b925050604061325c86828701613191565b9150509250925092565b600080600080608085870312156132805761327f614291565b5b600061328e8782880161308b565b945050602061329f8782880161308b565b93505060406132b087828801613191565b925050606085013567ffffffffffffffff8111156132d1576132d061428c565b5b6132dd87828801613135565b91505092959194509250565b60008060408385031215613300576132ff614291565b5b600061330e8582860161308b565b925050602061331f858286016130f6565b9150509250929050565b600080604083850312156133405761333f614291565b5b600061334e8582860161308b565b925050602061335f85828601613191565b9150509250929050565b600080602083850312156133805761337f614291565b5b600083013567ffffffffffffffff81111561339e5761339d61428c565b5b6133aa858286016130a0565b92509250509250929050565b6000602082840312156133cc576133cb614291565b5b60006133da848285016130f6565b91505092915050565b6000602082840312156133f9576133f8614291565b5b60006134078482850161310b565b91505092915050565b60006020828403121561342657613425614291565b5b600061343484828501613120565b91505092915050565b60006020828403121561345357613452614291565b5b600082013567ffffffffffffffff8111156134715761347061428c565b5b61347d84828501613163565b91505092915050565b60006020828403121561349c5761349b614291565b5b60006134aa84828501613191565b91505092915050565b60006134bf838361398e565b60208301905092915050565b6134d481613fcb565b82525050565b60006134e582613e4a565b6134ef8185613e78565b93506134fa83613e25565b8060005b8381101561352b57815161351288826134b3565b975061351d83613e6b565b9250506001810190506134fe565b5085935050505092915050565b61354181613fdd565b82525050565b600061355282613e55565b61355c8185613e89565b935061356c81856020860161404e565b61357581614296565b840191505092915050565b600061358b82613e60565b6135958185613e9a565b93506135a581856020860161404e565b6135ae81614296565b840191505092915050565b60006135c482613e60565b6135ce8185613eab565b93506135de81856020860161404e565b80840191505092915050565b600081546135f781614081565b6136018186613eab565b9450600182166000811461361c576001811461362d57613660565b60ff19831686528186019350613660565b61363685613e35565b60005b8381101561365857815481890152600182019150602081019050613639565b838801955050505b50505092915050565b6000613676602b83613e9a565b9150613681826142a7565b604082019050919050565b6000613699603283613e9a565b91506136a4826142f6565b604082019050919050565b60006136bc602683613e9a565b91506136c782614345565b604082019050919050565b60006136df602583613e9a565b91506136ea82614394565b604082019050919050565b6000613702601c83613e9a565b915061370d826143e3565b602082019050919050565b6000613725601c83613e9a565b91506137308261440c565b602082019050919050565b6000613748602483613e9a565b915061375382614435565b604082019050919050565b600061376b601983613e9a565b915061377682614484565b602082019050919050565b600061378e602983613e9a565b9150613799826144ad565b604082019050919050565b60006137b1601683613e9a565b91506137bc826144fc565b602082019050919050565b60006137d4602483613e9a565b91506137df82614525565b604082019050919050565b60006137f7603e83613e9a565b915061380282614574565b604082019050919050565b600061381a602083613e9a565b9150613825826145c3565b602082019050919050565b600061383d602083613e9a565b9150613848826145ec565b602082019050919050565b6000613860601683613e9a565b915061386b82614615565b602082019050919050565b6000613883602f83613e9a565b915061388e8261463e565b604082019050919050565b60006138a6601883613e9a565b91506138b18261468d565b602082019050919050565b60006138c9602183613e9a565b91506138d4826146b6565b604082019050919050565b60006138ec601283613e9a565b91506138f782614705565b602082019050919050565b600061390f602c83613e9a565b915061391a8261472e565b604082019050919050565b6000613932601783613e9a565b915061393d8261477d565b602082019050919050565b6000613955602e83613e9a565b9150613960826147a6565b604082019050919050565b6000613978601b83613e9a565b9150613983826147f5565b602082019050919050565b61399781614035565b82525050565b6139a681614035565b82525050565b60006139b882866135b9565b91506139c482856135b9565b91506139d082846135ea565b9150819050949350505050565b60006020820190506139f260008301846134cb565b92915050565b6000608082019050613a0d60008301876134cb565b613a1a60208301866134cb565b613a27604083018561399d565b8181036060830152613a398184613547565b905095945050505050565b60006020820190508181036000830152613a5e81846134da565b905092915050565b6000602082019050613a7b6000830184613538565b92915050565b60006020820190508181036000830152613a9b8184613580565b905092915050565b60006020820190508181036000830152613abc81613669565b9050919050565b60006020820190508181036000830152613adc8161368c565b9050919050565b60006020820190508181036000830152613afc816136af565b9050919050565b60006020820190508181036000830152613b1c816136d2565b9050919050565b60006020820190508181036000830152613b3c816136f5565b9050919050565b60006020820190508181036000830152613b5c81613718565b9050919050565b60006020820190508181036000830152613b7c8161373b565b9050919050565b60006020820190508181036000830152613b9c8161375e565b9050919050565b60006020820190508181036000830152613bbc81613781565b9050919050565b60006020820190508181036000830152613bdc816137a4565b9050919050565b60006020820190508181036000830152613bfc816137c7565b9050919050565b60006020820190508181036000830152613c1c816137ea565b9050919050565b60006020820190508181036000830152613c3c8161380d565b9050919050565b60006020820190508181036000830152613c5c81613830565b9050919050565b60006020820190508181036000830152613c7c81613853565b9050919050565b60006020820190508181036000830152613c9c81613876565b9050919050565b60006020820190508181036000830152613cbc81613899565b9050919050565b60006020820190508181036000830152613cdc816138bc565b9050919050565b60006020820190508181036000830152613cfc816138df565b9050919050565b60006020820190508181036000830152613d1c81613902565b9050919050565b60006020820190508181036000830152613d3c81613925565b9050919050565b60006020820190508181036000830152613d5c81613948565b9050919050565b60006020820190508181036000830152613d7c8161396b565b9050919050565b6000602082019050613d98600083018461399d565b92915050565b6000613da8613db9565b9050613db482826140b3565b919050565b6000604051905090565b600067ffffffffffffffff821115613dde57613ddd614249565b5b613de782614296565b9050602081019050919050565b600067ffffffffffffffff821115613e0f57613e0e614249565b5b613e1882614296565b9050602081019050919050565b6000819050602082019050919050565b60008190508160005260206000209050919050565b600081519050919050565b600081519050919050565b600081519050919050565b6000602082019050919050565b600082825260208201905092915050565b600082825260208201905092915050565b600082825260208201905092915050565b600081905092915050565b6000613ec182614035565b9150613ecc83614035565b9250827fffffffffffffffffffffffffffffffffffffffffffffffffffffffffffffffff03821115613f0157613f0061415e565b5b828201905092915050565b6000613f1782614035565b9150613f2283614035565b925082613f3257613f3161418d565b5b828204905092915050565b6000613f4882614035565b9150613f5383614035565b9250817fffffffffffffffffffffffffffffffffffffffffffffffffffffffffffffffff0483118215151615613f8c57613f8b61415e565b5b828202905092915050565b6000613fa282614035565b9150613fad83614035565b925082821015613fc057613fbf61415e565b5b828203905092915050565b6000613fd682614015565b9050919050565b60008115159050919050565b60007fffffffff0000000000000000000000000000000000000000000000000000000082169050919050565b600073ffffffffffffffffffffffffffffffffffffffff82169050919050565b6000819050919050565b82818337600083830152505050565b60005b8381101561406c578082015181840152602081019050614051565b8381111561407b576000848401525b50505050565b6000600282049050600182168061409957607f821691505b602082108114156140ad576140ac6141bc565b5b50919050565b6140bc82614296565b810181811067ffffffffffffffff821117156140db576140da614249565b5b80604052505050565b60006140ef82614035565b91507fffffffffffffffffffffffffffffffffffffffffffffffffffffffffffffffff8214156141225761412161415e565b5b600182019050919050565b600061413882614035565b915061414383614035565b9250826141535761415261418d565b5b828206905092915050565b7f4e487b7100000000000000000000000000000000000000000000000000000000600052601160045260246000fd5b7f4e487b7100000000000000000000000000000000000000000000000000000000600052601260045260246000fd5b7f4e487b7100000000000000000000000000000000000000000000000000000000600052602260045260246000fd5b7f4e487b7100000000000000000000000000000000000000000000000000000000600052603160045260246000fd5b7f4e487b7100000000000000000000000000000000000000000000000000000000600052603260045260246000fd5b7f4e487b7100000000000000000000000000000000000000000000000000000000600052604160045260246000fd5b600080fd5b600080fd5b600080fd5b600080fd5b600080fd5b600080fd5b6000601f19601f8301169050919050565b7f455243373231456e756d657261626c653a206f776e657220696e646578206f7560008201527f74206f6620626f756e6473000000000000000000000000000000000000000000602082015250565b7f4552433732313a207472616e7366657220746f206e6f6e20455243373231526560008201527f63656976657220696d706c656d656e7465720000000000000000000000000000602082015250565b7f4f776e61626c653a206e6577206f776e657220697320746865207a65726f206160008201527f6464726573730000000000000000000000000000000000000000000000000000602082015250565b7f4552433732313a207472616e736665722066726f6d20696e636f72726563742060008201527f6f776e6572000000000000000000000000000000000000000000000000000000602082015250565b7f4552433732313a20746f6b656e20616c7265616479206d696e74656400000000600082015250565b7f6d6178204e465420706572206164647265737320657863656564656400000000600082015250565b7f4552433732313a207472616e7366657220746f20746865207a65726f2061646460008201527f7265737300000000000000000000000000000000000000000000000000000000602082015250565b7f4552433732313a20617070726f766520746f2063616c6c657200000000000000600082015250565b7f4552433732313a2061646472657373207a65726f206973206e6f74206120766160008201527f6c6964206f776e65720000000000000000000000000000000000000000000000602082015250565b7f6d6178204e4654206c696d697420657863656564656400000000000000000000600082015250565b7f6d6178206d696e7420616d6f756e74207065722073657373696f6e206578636560008201527f6564656400000000000000000000000000000000000000000000000000000000602082015250565b7f4552433732313a20617070726f76652063616c6c6572206973206e6f7420746f60008201527f6b656e206f776e6572206e6f7220617070726f76656420666f7220616c6c0000602082015250565b7f4552433732313a206d696e7420746f20746865207a65726f2061646472657373600082015250565b7f4f776e61626c653a2063616c6c6572206973206e6f7420746865206f776e6572600082015250565b7f74686520636f6e74726163742069732070617573656400000000000000000000600082015250565b7f4552433732314d657461646174613a2055524920717565727920666f72206e6f60008201527f6e6578697374656e7420746f6b656e0000000000000000000000000000000000602082015250565b7f4552433732313a20696e76616c696420746f6b656e2049440000000000000000600082015250565b7f4552433732313a20617070726f76616c20746f2063757272656e74206f776e6560008201527f7200000000000000000000000000000000000000000000000000000000000000602082015250565b7f696e73756666696369656e742066756e64730000000000000000000000000000600082015250565b7f455243373231456e756d657261626c653a20676c6f62616c20696e646578206f60008201527f7574206f6620626f756e64730000000000000000000000000000000000000000602082015250565b7f75736572206973206e6f742077686974656c6973746564000000000000000000600082015250565b7f4552433732313a2063616c6c6572206973206e6f7420746f6b656e206f776e6560008201527f72206e6f7220617070726f766564000000000000000000000000000000000000602082015250565b7f6e65656420746f206d696e74206174206c656173742031204e46540000000000600082015250565b61482781613fcb565b811461483257600080fd5b50565b61483e81613fdd565b811461484957600080fd5b50565b61485581613fe9565b811461486057600080fd5b50565b61486c81614035565b811461487757600080fd5b5056fea2646970667358221220853392861cbfb0e07956d986d6212a10ead1a914e57fdbfb35e962548872e53964736f6c63430008070033",
  "linkReferences": {},
  "deployedLinkReferences": {}
}